:100000000C945F000C9487000C9487000C9487007C
:100010000C9487000C9487000C9487000C94870044
:100020000C9487000C9487000C9487000C94870034
:100030000C9487000C9487000C9487000C94870024
:100040000C948B070C9487000C94640A0C94960A09
:100050000C9487000C9487000C9487000C94870004
:100060000C9487000C948700000000080002010037
:100070000003040700000000000000000102040863
:100080001020408001020408102001020408102002
:10009000040404040404040402020202020203032E
:1000A0000303030300000000250028002B000000CC
:1000B0000000240027002A009601BA03C60A112472
:1000C0001FBECFEFD8E0DEBFCDBF15E0A0E0B1E0AE
:1000D000E4EBFFE102C005900D92A836B107D9F715
:1000E00026E0A8E6B5E001C01D92AE35B207E1F703
:1000F00010E0CEEBD0E004C02297FE010E94A70FD3
:10010000C83BD107C9F70E94210D0C94D80F0C945D
:100110000000FC0180EB94E00E94500F7483638325
:100120000895DC011A967C936E931997FB01019058
:100130000020E9F7E61BF70B32971896FC93EE9335
:100140001797089541E0FC0121813281232B09F4A6
:1001500040E0842F0895FC01128211820895FC0171
:10016000258136812F5F3F4F3683258381E047818C
:100170005085421753070CF480E00895CF93DF9326
:10018000EC0181E088832B853C858D859E85282325
:1001900039238B819C81BC011216130624F4660F4F
:1001A000771F680F791F88E695E00E943B0781E082
:1001B00090E09A838983DF91CF910895CF93DF9365
:1001C000EC01E985FA858D819E81E80FF91F808118
:1001D000992787FD90950E94BA0F855F9E4FFC017D
:1001E0008081992787FD90959E878D87009779F468
:1001F0006B817C81660F771F660F771F88E695E01D
:100200000E943B0784E090E09A83898327C0813075
:10021000910519F41A82198221C020E830E03C8748
:100220002B8728E030E04B855C85BC016423752377
:10023000161617065CF48B859C85959587959C878B
:100240008B87CE01DF91CF910C94BE0055954795D9
:100250005C874B872150310931F7EDCFDF91CF918A
:100260000895FC01168215820C94DE00CF93DF9373
:10027000EC0188E695E00E945007882309F443C00A
:1002800089819A818230910571F054F40197D9F5F2
:1002900082E090E09A83898318826B817C8116C00A
:1002A0000597FCF030C08B859C85959587959C873C
:1002B0008B87892B89F483E090E09A8389838B81F3
:1002C0009C81BC01660F771F680F791F88E695E057
:1002D000DF91CF910C943B07CE01DF91CF910C942D
:1002E000BE00CE010E94AF00882329F0CE01DF912D
:1002F000CF910C94DE006B817C8188E695E00E94B2
:100300003B071A821982DF91CF910895CF93DF9333
:10031000EC010E94360181E090E029813A81232B93
:1003200011F480E090E0DF91CF91089544E650E031
:1003300060E070E088E695E00C9422070F931F932D
:10034000CF93DF930FE715E0C0E0D0E0CE010E942D
:10035000C20FF80181938F012196C832D105B1F700
:100360008FE795E0DF91CF911F910F9108956BEA90
:1003700071E081EC95E00E94540B6EEB71E081EC32
:1003800095E00E94470B20E034E244E759E4609195
:1003900006017091070180910801909109010E9466
:1003A000E90EAB01BC0122E030E081EC95E00E9457
:1003B0000E0D6BEC71E081EC95E00E94470B20E0A4
:1003C00034E244E759E460910201709103018091A5
:1003D0000401909105010E94E90EAB01BC0122E0ED
:1003E00030E081EC95E00E940E0D67ED71E081EC4C
:1003F00095E00E94470B60910001709101014AE075
:1004000050E081EC95E00E94090C81EC95E00C94A1
:10041000500B62EF74E081EC95E00E94540B64EDA8
:1004200074E081EC95E00E94540B81EC95E00C9413
:10043000500B63EE71E081EC95E00E94540B64EF89
:1004400071E081EC95E00E94540B68E172E081EC70
:1004500095E00E94540B63E472E081EC95E00E9409
:10046000540B6CE672E081EC95E00E94540B6AE953
:1004700072E081EC95E00E94540B61EC72E081EC3B
:1004800095E00E94540B66EF72E081EC95E00E94CB
:10049000540B65E073E081EC95E00E94540B6EE034
:1004A00073E081EC95E00E94540B63E273E081EC11
:1004B00095E00E94540B61E573E081EC95E00E94A9
:1004C000540B6AE573E081EC95E00E94540B67EAF7
:1004D00073E081EC95E00E94540B6AEE73E081ECCE
:1004E00095E00E94540B65E274E081EC95E00E9477
:1004F000540B62E674E081EC95E00E94470B0E9489
:100500009E016FE775E081EC95E00E94470B66E77E
:1005100074E081EC95E00E94540B68E774E081EC94
:1005200095E00E94470B4091AC055091AD0560915C
:10053000AE057091AF0520E030E081EC95E00E94BF
:100540000C0D6EE874E081EC95E00E94470B409141
:10055000A8055091A9056091AA057091AB0520E00E
:1005600030E081EC95E00E940E0D81EC95E00C945A
:10057000500B1F93CF93DF93182FC8E0D0E0612F6B
:1005800061708AE00E94E90861E08CE00E94E9085D
:1005900060E08CE00E94E9081695219781F7DF91D1
:1005A000CF911F910895CF92DF92EF92FF92CF9358
:1005B000DF9320E030E040E85FE40E94E90E28E2AB
:1005C0003BE64EEE5CE40E949A0D0E94020E6B0127
:1005D0007C01C4E0D0E08C2D0E94B902CD2CDE2C31
:1005E000EF2CFF24E7FCFA942197A9F780E00E9402
:1005F000B90261E08BE00E94E90860E08BE0DF91E6
:10060000CF91FF90EF90DF90CF900C94E908CF93BB
:10061000DF9360E070E0CB010E94D30264E670E0FB
:1006200080E090E00E94040860E070E0CB010E944E
:10063000D30264E670E080E090E00E94040810922B
:10064000A8051092A9051092AA051092AB05109268
:10065000AC051092AD051092AE051092AF05C0E149
:10066000D0E08EE00E946A08BC01882777FD809563
:10067000982F0E94350E9B01AC016091A8057091E6
:10068000A9058091AA059091AB050E94320D609357
:10069000A8057093A9058093AA059093AB058FE0F8
:1006A0000E946A08BC01882777FD8095982F0E94D8
:1006B000350E9B01AC016091AC057091AD05809148
:1006C000AE059091AF050E94320D6093AC0570931A
:1006D000AD058093AE059093AF0564E670E080E0D1
:1006E00090E00E940408219709F0BBCF20E030E0A1
:1006F00040E85DE36091A8057091A9058091AA0585
:100700009091AB050E94E90E6093A8057093A9052E
:100710008093AA059093AB0520E030E040E85DE3CC
:100720006091AC057091AD058091AE059091AF05DB
:100730000E94E90E6093AC057093AD058093AE0501
:100740009093AF05DF91CF91089520E034E244E724
:1007500059E4609106017091070180910801909120
:1007600009010E94E90E0C94D30260E070E0CB0115
:100770000C94D3026CE070E080E795E00C94890063
:1007800061E08BE00E94B00861E08CE00E94B0085C
:1007900061E08AE00E94B00861E089E00E94B00850
:1007A00061E08DE00E94B00860E08EE00E94B00839
:1007B00060E08FE00E94B00883E00E94670826E0B6
:1007C00040E051EE60E070E081EC95E00E94020AAA
:1007D00061E089E00E94E90860E089E00E94E908A0
:1007E0001092B0051092B1051092B2051092B305A7
:1007F0000E949E010E9407030E94090281EC95E07D
:100800000C947B094F925F926F927F928F929F928E
:10081000AF92BF92CF92DF92EF92FF920F931F930E
:10082000CF93DF9300D000D0CDB7DEB72091060183
:100830003091070140910801509109016091020136
:100840007091030180910401909105010E94310D86
:100850006B017C016091000170910101882777FD97
:100860008095982F0E94350E9B01AC01C701B601FF
:100870000E949A0D69837A838B839C8300E010E049
:100880008091000190910101801791070CF4ECC058
:10089000B801882777FD8095982F0E94350E298111
:1008A0003A814B815C810E94E90E209106013091D2
:1008B000070140910801509109010E94320D609397
:1008C000B4057093B5058093B6059093B70520E005
:1008D00034E244E759E40E94E90E0E94D30264E640
:1008E00070E080E090E00E9404088EE00E946A08B8
:1008F000BC01882777FD8095982F0E94350E2091A6
:10090000A8053091A9054091AA055091AB050E9418
:10091000310D6B017C018FE00E946A08BC018827C1
:1009200077FD8095982F0E94350E2091AC0530916F
:10093000AD054091AE055091AF050E94310D4B01C0
:100940005C019B01AC01C701B6010E94E50E87FD69
:100950000AC020E030E040E85FE3C501B4010E9436
:10096000310D6B017C0120E030E040E85FE3C7011E
:10097000B6010E94960D87FF06C0C12CD12C20E83D
:10098000E22E2FE3F22EA7019601C501B4010E94C9
:10099000320D2B013C01A7019601C501B4010E9453
:1009A000310D9B01AC01C301B2010E949A0D2B01D4
:1009B0003C0120E030E048EE51E40E94E50E87FD66
:1009C00008C094EF492E9DEF592E97EE692E91E4C1
:1009D000792E20E034E244E759E46091B405709147
:1009E000B5058091B6059091B7050E94E90EAB015F
:1009F000BC0122E030E081EC95E00E940C0D6AE938
:100A000074E081EC95E00E94470B20E030E04AE77B
:100A100054E4C301B2010E94E90EAB01BC0125E020
:100A200030E081EC95E00E940C0D6DE974E081EC02
:100A300095E00E94470B20E030E0B501A40181EC75
:100A400095E00E940C0D6DE974E081EC95E00E9448
:100A5000470B20E030E0B701A60181EC95E00E9451
:100A60000E0D0F5F1F4F0CCF0E94B50360EA74E0BC
:100A700081EC95E00E94540B81EC95E00F900F9073
:100A80000F900F90DF91CF911F910F91FF90EF90FA
:100A9000DF90CF90BF90AF909F908F907F906F909E
:100AA0005F904F900C947B09EF92FF920F931F93EE
:100AB000CF93DF931F92CDB7DEB780E280937F059F
:100AC00000E815E0EE24E394F12C81EC95E00E941F
:100AD0001F09892BD1F381EC95E00E9438098D30F4
:100AE00049F4F701E158FA4F10820FE715E0E12CC5
:100AF000F12C0DC08A30A9F3F80181938F01FFEF2B
:100B0000EF1AFF0A88E2E816F104F9F6EACFF801D5
:100B100061918F01C70169830E94C20F69816817C3
:100B200019F0C7010E94CA0FFFEFEF1AFF0A88E20F
:100B3000E816F10461F70F90DF91CF911F910F91AB
:100B4000FF90EF90089564EA74E081EC95E00E94D4
:100B5000470B0E949E016FE775E080E795E00E94D9
:100B6000910080E795E00E94310180E795E00E94C6
:100B7000A2008823B1F381EC95E00E941F091816AA
:100B8000190694F481EC95E00E943809833261F4EF
:100B900080E795E00E94AB000E94B5036BEB74E028
:100BA00081EC95E00C94540B80E795E00E9486015F
:100BB00080917005882379F020E034E244E759E41D
:100BC00060910601709107018091080190910901DF
:100BD0000E94E90E03C060E070E0CB010E94D302E6
:100BE000C4CF0F931F93082F8E3409F4D2C00CF09A
:100BF00044C08F3309F401C194F5833209F4DEC097
:100C00003CF4813209F009C11F910F910C945405F5
:100C100080ED800F8A3008F000C12091B00530913E
:100C2000B1054091B2055091B305AAE0B0E00E9431
:100C3000860F112707FD109500531109222717FD74
:100C40002095322F600F711F821F931F6093B00594
:100C50007093B1058093B2059093B305DEC08234E2
:100C600009F447C01CF4813459F1D7C0833409F426
:100C700059C0883409F4C9C0D0C0833609F452C0C1
:100C80006CF4863509F4C5C024F4833509F492C0A8
:100C9000C4C08136A9F0823661F1BFC0833709F440
:100CA00089C03CF4883609F4B0C08E3609F471C0AE
:100CB000B4C0843709F486C0863709F4AAC0ADC031
:100CC0006091B0057091B1058091B2059091B30526
:100CD0000E94350E20E034E244E759E40E949A0D68
:100CE00060930601709307018093080190930901B6
:100CF00058C06091B0057091B1058091B205909196
:100D0000B3050E94350E20E034E244E759E40E9426
:100D10009A0D6093020170930301809304019093F4
:100D200005013FC06091B0057091B1058091B20599
:100D30009091B3050E94350E20E034E244E759E477
:100D40000E949A0D60930601709307018093080139
:100D50009093090120E034E244E759E40E94E90E4F
:100D60000E94D30264E670E080E090E00E940408F4
:100D700020E034E244E759E46091060170910701F4
:100D800080910801909109010E94E90E0E94D3020E
:100D900008C08091B0059091B105909301018093B6
:100DA00000011092B0051092B1051092B205109298
:100DB000B30533C01F910F910C9402041F910F9142
:100DC0000C94A3058091A705882359F00E94B503D0
:100DD00063EC74E081EC95E00E94540B1092A7053F
:100DE0001CC00E94A5036CEC74E081EC95E00E94AD
:100DF000540B81E08093A70510C00E94B70181ECDD
:100E000095E01F910F910C94500B1F910F910C9432
:100E100019021F910F910C9409021F910F910895CF
:100E200081EC95E00E941F091816190654F481EC14
:100E300095E00E9438090E94F10581EC95E00C9440
:100E40007B0908950F931F93CF93DF93EC018A01E1
:100E5000222717FD2095322F0C831D832E833F837D
:100E60000E94D507688379838A839B83DF91CF9122
:100E70001F910F910895CF93DF93EC01AB0166278B
:100E800057FD6095762F4C835D836E837F830E9430
:100E9000D507688379838A839B83DF91CF910895F7
:100EA0008F929F92AF92BF92CF92DF92EF92FF927A
:100EB0000F931F93CF93DF93EC010E94D507088116
:100EC00019812A813B81CC80DD80EE80FF80601714
:100ED0007107820793075CF04B015C01801A910A4D
:100EE000A20AB30AC814D904EA04FB0434F46883E0
:100EF00079838A839B8381E001C080E0DF91CF9179
:100F00001F910F91FF90EF90DF90CF90BF90AF9027
:100F10009F908F9008951F920F920FB60F921124F9
:100F20002F933F938F939F93AF93BF938091B90576
:100F30009091BA05A091BB05B091BC053091B80560
:100F400023E0230F2D3720F40196A11DB11D05C00C
:100F500026E8230F0296A11DB11D2093B8058093AA
:100F6000B9059093BA05A093BB05B093BC058091D9
:100F7000BD059091BE05A091BF05B091C005019639
:100F8000A11DB11D8093BD059093BE05A093BF0523
:100F9000B093C005BF91AF919F918F913F912F91D9
:100FA0000F900FBE0F901F9018952FB7F894609177
:100FB000B9057091BA058091BB059091BC052FBF12
:100FC00008953FB7F8948091BD059091BE05A0911A
:100FD000BF05B091C00526B5A89B05C02F3F19F0ED
:100FE0000196A11DB11D3FBF6627782F892F9A2F2B
:100FF000620F711D811D911D42E0660F771F881FD2
:10100000991F4A95D1F70895CF92DF92EF92FF9200
:10101000CF93DF936B017C010E94E107EB01C114C8
:10102000D104E104F10489F00E94300D0E94E1072F
:101030006C1B7D0B683E734090F381E0C81AD108A9
:10104000E108F108C851DC4FEACFDF91CF91FF9062
:10105000EF90DF90CF900895789484B5826084BD3E
:1010600084B5816084BD85B5826085BD85B58160AC
:1010700085BDEEE6F0E0808181608083E1E8F0E00C
:101080001082808182608083808181608083E0E83B
:10109000F0E0808181608083E1EBF0E0808184601A
:1010A0008083E0EBF0E0808181608083EAE7F0E01C
:1010B0008081846080838081826080838081816080
:1010C00080838081806880831092C100089580931E
:1010D0000A0108958E3008F08E50877020910A0121
:1010E00090E4299F90011124822B80937C008091B1
:1010F0007A00806480937A0080917A0086FDFCCF2C
:10110000809178002091790090E0922B08958330AF
:1011100081F028F4813099F08230A1F00895873071
:10112000A9F08830B9F08430D1F4809180008F7DAF
:1011300003C0809180008F7780938000089584B5EC
:101140008F7702C084B58F7D84BD08958091B000F3
:101150008F7703C08091B0008F7D8093B000089599
:10116000CF93DF9390E0FC01E458FF4F2491FC0102
:10117000E057FF4F8491882349F190E0880F991F31
:10118000FC01E255FF4FA591B4918C559F4FFC0196
:10119000C591D4919FB7611108C0F8948C912095A6
:1011A00082238C93888182230AC0623051F4F894A0
:1011B0008C91322F309583238C938881822B888366
:1011C00004C0F8948C91822B8C939FBFDF91CF91B8
:1011D00008950F931F93CF93DF931F92CDB7DEB780
:1011E000282F30E0F901E859FF4F8491F901E458C4
:1011F000FF4F1491F901E057FF4F04910023C9F00C
:10120000882321F069830E9487086981E02FF0E03C
:10121000EE0FFF1FEC55FF4FA591B4919FB7F894C7
:101220008C91611103C01095812301C0812B8C9397
:101230009FBF0F90DF91CF911F910F910895FC01F7
:10124000818D228D90E0805C9F4F821B91098F736E
:1012500099270895FC01918D828D981731F0828D28
:10126000E80FF11D858D90E008958FEF9FEF0895B1
:10127000FC01918D828D981761F0828DDF01A80F9E
:10128000B11D5D968C91928D9F5F9F73928F90E0C0
:1012900008958FEF9FEF08958CEB9AE0892B49F02A
:1012A00080E090E0892B29F00E94BC0A81110C9407
:1012B00000000895FC01848DDF01A80FB11DA35A21
:1012C000BF4F2C91848D90E001968F739927848F66
:1012D000A689B7892C93A089B1898C9180648C935D
:1012E000938D848D981306C00288F389E02D808148
:1012F0008F7D80830895CF93DF93EC01888D8823C1
:10130000C9F0EA89FB89808185FD05C0A889B98972
:101310008C9186FD0FC00FB607FCF5CF808185FF4D
:10132000F2CFA889B9898C9185FFEDCFCE010E94BB
:101330005A09E7CFDF91CF910895CF92DF92FF92C4
:101340000F931F93CF93DF931F92CDB7DEB76C013E
:1013500081E0D60158968C9358975B969C915B9749
:101360005C968C915C97981307C05096ED91FC9118
:101370005197808185FD2EC0F601038D10E00F5F2F
:101380001F4F0F731127F02EF601848DF81211C034
:101390000FB607FCF9CFD6015096ED91FC9151970D
:1013A000808185FFF1CFC60169830E945A09698156
:1013B000EBCF838DE80FF11DE35AFF4F6083D60119
:1013C0005B960C935B975296ED91FC9153978081BD
:1013D00080620CC0D6015696ED91FC9157976083C0
:1013E0005096ED91FC91519780818064808381E0DB
:1013F00090E00F90DF91CF911F910F91FF90DF90C0
:10140000CF900895BF92CF92DF92EF92FF92CF9349
:10141000DF93EC016A017B01B22EE889F98982E051
:101420008083411581EE580761057105A1F060E0E8
:1014300079E08DE390E0A70196010E94640F2150AE
:101440003109410951095695479537952795211539
:1014500080E1380798F0E889F989108260E874E83B
:101460008EE190E0A70196010E94640F215031099E
:10147000410951095695479537952795EC85FD8586
:101480003083EE85FF852083188EEC89FD89B0823C
:10149000EA89FB89808180618083EA89FB89808178
:1014A00088608083EA89FB89808180688083EA89FB
:1014B000FB8980818F7D8083DF91CF91FF90EF90BA
:1014C000DF90CF90BF9008951F920F920FB60F92AA
:1014D00011242F938F939F93EF93FF93E091D10566
:1014E000F091D2058081E091D705F091D80582FD79
:1014F00012C090818091DA058F5F8F732091DB0598
:10150000821751F0E091DA05F0E0EF53FA4F958F32
:101510008093DA0501C08081FF91EF919F918F91B7
:101520002F910F900FBE0F901F9018951F920F9242
:101530000FB60F9211242F933F934F935F936F93A6
:101540007F938F939F93AF93BF93EF93FF9381EC20
:1015500095E00E945A09FF91EF91BF91AF919F9141
:101560008F917F916F915F914F913F912F910F904C
:101570000FBE0F901F90189581EC95E00E941F09F7
:1015800021E0892B09F420E0822F08951092C405F0
:101590001092C30588EE93E0A0E0B0E08093C5050B
:1015A0009093C605A093C705B093C8058BE495E05A
:1015B0009093C2058093C10585EC90E09093CE0591
:1015C0008093CD0584EC90E09093D0058093CF0577
:1015D00080EC90E09093D2058093D10581EC90E06F
:1015E0009093D4058093D30582EC90E09093D60538
:1015F0008093D50586EC90E09093D8058093D7052D
:101600001092DA051092DB051092DC051092DD05D0
:101610000895CF92DF92EF92FF920F931F93CF9393
:10162000DF937C016A01EB0100E010E00C151D0561
:1016300071F06991D701ED91FC910190F081E02D5D
:10164000C7010995892B19F00F5F1F4FEFCFC80114
:10165000DF91CF911F910F91FF90EF90DF90CF908E
:1016600008956115710581F0DB010D900020E9F707
:10167000AD0141505109461B570BDC01ED91FC9126
:101680000280F381E02D099480E090E008950C94AD
:10169000310BDC01ED91FC910190F081E02D09947A
:1016A00067E575E00C94310B0F931F93CF93DF9395
:1016B000EC010E94310B8C01CE010E94500B800F77
:1016C000911FDF91CF911F910F9108958F929F925B
:1016D000AF92BF92CF92DF92EF92FF920F931F9340
:1016E000CF93DF93CDB7DEB7A1970FB6F894DEBFE7
:1016F0000FBECDBF7C01C42EE52FCB01D22E19A287
:1017000021E02D1510F02AE0D22E8E010F5D1F4F23
:101710008D2C912CA12CB12C6C2D7E2FA501940128
:101720000E94640F8C2DD29E801911240150110942
:101730008A3014F4805D01C0895CF8018083211532
:1017400031054105510521F0C22EE32FCA01E4CF36
:10175000B801C7010E94310BA1960FB6F894DEBF05
:101760000FBECDBFDF91CF911F910F91FF90EF90F2
:10177000DF90CF90BF90AF909F908F900895CF92C1
:10178000DF92EF92FF920F931F93CF93DF93EC01C1
:101790006A017B012115310579F4E881F981019015
:1017A000F081E02D642FDF91CF911F910F91FF9079
:1017B000EF90DF90CF9009942A303105E9F477FF5C
:1017C0001AC06DE20E94490B8C0144275527BA01CB
:1017D0004C195D096E097F092AE0CE010E94660B53
:1017E000800F911FDF91CF911F910F91FF90EF908C
:1017F000DF90CF9008952AE0B701A601CE01DF91D6
:10180000CF911F910F91FF90EF90DF90CF900C94AC
:10181000660B0F931F93CF93DF93EC019A01AB01FB
:10182000662757FD6095762F0E94BF0B8C01CE0175
:101830000E94500B800F911FDF91CF911F910F914C
:1018400008954F925F926F927F928F929F92AF9284
:10185000BF92CF92DF92EF92FF920F931F93CF939D
:10186000DF93EC016A017B01B22E9A01AB01C70143
:10187000B6010E944C0F882319F06AE575E027C075
:1018800026013701E89477F82FEF3FEF4FE75FE746
:10189000C301B2010E944C0F81110DC02FEF3FEF29
:1018A0004FE75FE7C301B2010E94960D18161CF4C2
:1018B0006EE575E00CC02FEF3FEF4FE75FE4C70127
:1018C000B6010E94E50E1816ACF462E675E0CE0192
:1018D000DF91CF911F910F91FF90EF90DF90CF900C
:1018E000BF90AF909F908F907F906F905F904F9040
:1018F0000C94310B2FEF3FEF4FE75FECC701B601C0
:101900000E94960D87FDE1CF20E030E0A901C701DC
:10191000B6010E94960D87FF0AC06DE2CE010E94BB
:10192000490B8C01F7FAF094F7F8F09402C000E04C
:1019300010E0A12C60E070E080E09FE3AB1441F088
:1019400020E030E040E251E40E949A0DA394F6CFEB
:101950009B01AC01C701B6010E94320D6B017C01F5
:101960000E94070E2B013C010E94330E9B01AC012B
:10197000C701B6010E94310D6B017C012AE0B30161
:10198000A201CE010E94660B080F191FBB2039F07F
:1019900066E675E0CE010E94310B080F191F7B2C03
:1019A000772041F120E030E040E251E4C701B60188
:1019B0000E94E90E6B017C010E94020E4B01AA24D9
:1019C00097FCA094BA2C2AE030E0B501A401CE0126
:1019D0000E94BF0B080F191FC501B4010E94350EEC
:1019E0009B01AC01C701B6010E94310D6B017C0166
:1019F0007A94D6CFC801DF91CF911F910F91FF90BC
:101A0000EF90DF90CF90BF90AF909F908F907F909E
:101A10006F905F904F9008950C94210C0F931F933B
:101A2000CF93DF93EC010E94210C8C01CE010E9428
:101A3000500B800F911FDF91CF911F910F9108954F
:101A400008950E942C080E94200D0E94C003CCE43F
:101A5000D9E00E9410072097E1F30E944C09F9CFCA
:101A600008955058BB27AA270ED075C166D130F013
:101A70006BD120F031F49F3F11F41EF45BC10EF4E2
:101A8000E095E7FB51C1E92F77D180F3BA176207E0
:101A900073078407950718F071F49EF58FC10EF453
:101AA000E0950B2EBA2FA02D0B01B90190010C016E
:101AB000CA01A0011124FF27591B99F0593F50F486
:101AC000503E68F11A16F040A22F232F342F4427DE
:101AD000585FF3CF469537952795A795F0405395D6
:101AE000C9F77EF41F16BA0B620B730B840BBAF0A6
:101AF0009150A1F0FF0FBB1F661F771F881FC2F711
:101B00000EC0BA0F621F731F841F48F48795779524
:101B10006795B795F7959E3F08F0B3CF9395880FDB
:101B200008F09927EE0F979587950895D9D008F476
:101B300081E008950CD00FC107D140F0FED030F005
:101B400021F45F3F19F0F0C0511139C1F3C014D135
:101B500098F39923C9F35523B1F3951B550BBB2774
:101B6000AA2762177307840738F09F5F5F4F220F21
:101B7000331F441FAA1FA9F333D00E2E3AF0E0E81A
:101B800030D091505040E695001CCAF729D0FE2F66
:101B900027D0660F771F881FBB1F261737074807F8
:101BA000AB07B0E809F0BB0B802DBF01FF279358AE
:101BB0005F4F2AF09E3F510568F0B6C000C15F3FFD
:101BC000ECF3983EDCF3869577956795B795F79596
:101BD0009F5FC9F7880F911D9695879597F908958E
:101BE000E1E0660F771F881FBB1F6217730784072A
:101BF000BA0720F0621B730B840BBA0BEE1F88F739
:101C0000E095089504D06894B111D9C00895BCD06E
:101C100088F09F5790F0B92F9927B751A0F0D1F0D5
:101C2000660F771F881F991F1AF0BA95C9F712C05F
:101C3000B13081F0C3D0B1E00895C0C0672F782FD4
:101C40008827B85F39F0B93FCCF3869577956795CB
:101C5000B395D9F73EF490958095709561957F4F37
:101C60008F4F9F4F0895E89409C097FB3EF49095DD
:101C70008095709561957F4F8F4F9F4F9923A9F065
:101C8000F92F96E9BB279395F695879577956795F4
:101C9000B795F111F8CFFAF4BB0F11F460FF1BC038
:101CA0006F5F7F4F8F4F9F4F16C0882311F096E9CB
:101CB00011C0772321F09EE8872F762F05C0662379
:101CC00071F096E8862F70E060E02AF09A95660F32
:101CD000771F881FDAF7880F9695879597F90895EB
:101CE000990F0008550FAA0BE0E8FEEF161617062D
:101CF000E807F907C0F012161306E407F50798F095
:101D0000621B730B840B950B39F40A2661F0232BAD
:101D1000242B252B21F408950A2609F4A140A69529
:101D20008FEF811D811D089597F99F6780E870E00E
:101D300060E008959FEF80EC089500240A94161641
:101D4000170618060906089500240A9412161306A9
:101D5000140605060895092E0394000C11F4882337
:101D600052F0BB0F40F4BF2B11F460FF04C06F5F53
:101D70007F4F8F4F9F4F089557FD9058440F551F29
:101D800059F05F3F71F04795880F97FB991F61F0FD
:101D90009F3F79F087950895121613061406551F74
:101DA000F2CF4695F1DF08C0161617061806991FE0
:101DB000F1CF86957105610508940895E894BB27D5
:101DC00066277727CB0197F908958ADF08F48FEF0C
:101DD00008950BD0C0CFB1DF28F0B6DF18F09523FF
:101DE00009F0A2CFA7CF1124EACFC6DFA0F3959FB9
:101DF000D1F3950F50E0551F629FF001729FBB27F2
:101E0000F00DB11D639FAA27F00DB11DAA1F649F9D
:101E10006627B00DA11D661F829F2227B00DA11D50
:101E2000621F739FB00DA11D621F839FA00D611DD6
:101E3000221F749F3327A00D611D231F849F600DF7
:101E4000211D822F762F6A2F11249F5750408AF030
:101E5000E1F088234AF0EE0FFF1FBB1F661F771FBC
:101E6000881F91505040A9F79E3F510570F05CCFFC
:101E7000A6CF5F3FECF3983EDCF3869577956795A8
:101E8000B795F795E7959F5FC1F7FE2B880F911DDA
:101E90009695879597F9089523DF880B990B0895F8
:101EA00097FB072E16F4009407D077FD09D00E9407
:101EB000910F07FC05D03EF4909581959F4F0895B2
:101EC000709561957F4F0895A1E21A2EAA1BBB1B46
:101ED000FD010DC0AA1FBB1FEE1FFF1FA217B307F6
:101EE000E407F50720F0A21BB30BE40BF50B661F0C
:101EF000771F881F991F1A9469F7609570958095D0
:101F000090959B01AC01BD01CF0108950E94AB0FDC
:101F1000A59F900DB49F900DA49F800D911D11243D
:101F20000895AA1BBB1B51E107C0AA1FBB1FA61720
:101F3000B70710F0A61BB70B881F991F5A95A9F772
:101F400080959095BC01CD010895EE0FFF1F05907F
:101F5000F491E02D0994A29FB001B39FC001A39F0B
:101F6000700D811D1124911DB29F700D811D1124D2
:101F7000911D08959111089581548A5108F4805E4D
:101F8000855A0895F999FECF92BD81BDF89A992797
:101F900080B50895262FF999FECF1FBA92BD81BD55
:101FA00020BD0FB6F894FA9AF99A0FBE01960895DB
:041FB000F894FFCFD3
:101FB40064000000F0410000803F010101010101C3
:101FC40001010101010101010101010101010101FD
:101FD4000101280101010101010101008052451F95
:101FE40001285E366D352A736155323F2F27232130
:101FF4002030383C3E786A0131014C0105181A0C36
:1020040002120E1004170D1407060F161D0A0803FA
:1020140009110B191B1C01010101610105181A0C9E
:1020240002120E1004170D1407060F161D0A0803DA
:1020340009110B191B1C01010101010113010115F7
:102044000101010101010101011501010101011E4B
:10205400010101011E1301010101012D2D2D205348
:102064007765657020696E666F202D2D2D00537481
:1020740061727420467265713A090053746F70205E
:10208400467265713A09004E756D2053746570731C
:102094003A09002D2D2D2D20636F6D6D616E6473D3
:1020A4002D2D2D006C6574746572096465736372FB
:1020B400697074696F6E09096578616D706C650982
:1020C40009726573756C7400276127097365742040
:1020D4007374617274206672657175656E637909D3
:1020E400363030303030306109362E303030204DCB
:1020F400687A002762270973657420656E64206618
:1021040072657175656E63790938303030303030FE
:102114006209382E303030204D687A002763270951
:1021240073657420636F6E7374616E742066726578
:102134007175656E63790937303332303030630935
:10214400372E303332204D687A00276E27097365A5
:1021540074206E756D6572206F662073746570737C
:10216400093130306E090931303020737465707371
:102174000027732709706572666F726D2073776527
:1021840065702066726F6D206672657175656E6329
:1021940079206120746F20622077697468206E2032
:1021A400737465707300273F270973776565702022
:1021B400696E666F002768270968656C700027766A
:1021C4002709736F66747761726520766572736927
:1021D4006F6E002D2D2D2D20636F6D6D616E6473F8
:1021E400206D6179206265206C6F776572206F7253
:1021F4002075707065722063617365202D2D2D2DFF
:102204000047696D6D69636B3A002774270922746E
:10221400756E6522206F6E2F6F6666203B20736596
:102224006E642063617272696572207769746820D4
:102234007374617274206672657175656E6379205A
:102244002820636F6D6D616E6420276127206F7293
:10225400202763272029002721270973746F7265BB
:1022640020666F6C6C6F77696E6720746578742074
:10227400696E20454550524F4D20666F722062654D
:1022840061636F6E2074782C20656E6420776974A6
:1022940068203C656E7465723E00272327097365C8
:1022A4006E6420626561636F6E2074782074657853
:1022B4007420616761696E20616E64206167616981
:1022C4006E202820627265616B207769746820270C
:1022D40023272029002009426561636F6E206672FE
:1022E400657175656E6379206973207374617274A6
:1022F400206672657175656E6379202820636F6D41
:102304006D616E6420276127206F72202763272068
:10231400290061637475616C20626561636F6E206E
:10232400746578743A202200496E666F206F666681
:1023340073657420666F72776172643A20003B2083
:10234400726576657273653A20002C20302C20006B
:10235400456E640062616B65206C6165756674210D
:102364002073746F702027232720002E2E20656E83
:1023740064650074756E65206F66660074756E65BD
:10238400206F6E004275696C64204461746520207E
:10239400202020203A20466562203132203230311C
:1023A4003600536F6674776172652056657273697F
:1023B4006F6E3A20433A5C55736572735C646B329A
:1023C4006A6B5C446F63756D656E74735C417264B3
:1023D40075696E6F5C6464735F737765657065724D
:1023E400325F325C6464735F737765657065723203
:1023F4005F322E696E6F00000000009D09090B1FFB
:102404000938092A097B090D0A006E616E00696E9C
:0824140066006F7666002E00E1
:107800000C94343C0C94513C0C94513C0C94513CE1
:107810000C94513C0C94513C0C94513C0C94513CB4
:107820000C94513C0C94513C0C94513C0C94513CA4
:107830000C94513C0C94513C0C94513C0C94513C94
:107840000C94513C0C94513C0C94513C0C94513C84
:107850000C94513C0C94513C0C94513C0C94513C74
:107860000C94513C0C94513C11241FBECFEFD8E036
:10787000DEBFCDBF11E0A0E0B1E0ECE9FFE702C060
:1078800005900D92A230B107D9F712E0A2E0B1E065
:1078900001C01D92AD30B107E1F70E942D3D0C945F
:1078A000CC3F0C94003C982F959595959595959582
:1078B000905D8F708A307CF0282F295A8091C0000B
:1078C00085FFFCCF9093C6008091C00085FFFCCF60
:1078D0002093C6000895282F205DF0CF982F809127
:1078E000C00085FFFCCF9093C6000895EF92FF92F1
:1078F0000F931F93EE24FF2487018091C00087FD22
:1079000017C00894E11CF11C011D111D81E4E8164B
:1079100082E4F8068FE0080780E0180770F3E09132
:107920000401F091050109958091C00087FFE9CF1E
:107930008091C6001F910F91FF90EF9008950E94D3
:10794000763C982F8091C00085FFFCCF9093C600B5
:1079500091362CF490330CF09053892F089597555D
:10796000892F08951F930E949F3C182F0E949F3CCF
:107970001295107F810F1F9108951F93182F882350
:1079800021F00E94763C1150E1F71F9108951F935A
:10799000182F0E94763C803249F0809103018F5F5E
:1079A000809303018530C1F01F9108958091C0003C
:1079B00085FFFCCF84E18093C6008091C00085FFE5
:1079C000FCCF1093C6008091C00085FFFCCF80E102
:1079D0008093C6001F910895E0910401F091050184
:1079E00009951F9108950E94763C803241F0809164
:1079F00003018F5F80930301853081F008958091AA
:107A0000C00085FFFCCF84E18093C6008091C00058
:107A100085FFFCCF80E18093C6000895E0910401CA
:107A2000F09105010995089540E951E08823A1F0FE
:107A30002D9A28EE33E0FA013197F1F721503040CA
:107A4000D1F72D9828EE33E0FA013197F1F7215064
:107A50003040D1F7815061F708953F924F925F9285
:107A60006F927F928F929F92AF92BF92CF92DF924E
:107A7000EF92FF920F931F93CF93DF93000080E16B
:107A80008093C4001092C50088E18093C10086E015
:107A90008093C2005098589A259A81E00E94143D24
:107AA00024E1F22E9EE1E92E85E9D82E0FE0C02ECA
:107AB00010E1B12EAA24A394B1E49B2EA6E58A2E50
:107AC000F2E57F2EE0E26E2E79E4572E63E5462E36
:107AD00050E5352E0E94763C8033B1F18133B9F107
:107AE000803409F46FC0813409F476C0823409F41B
:107AF00085C0853409F488C0803531F1823521F1A3
:107B0000813511F1853509F485C0863509F48DC0BC
:107B1000843609F496C0843709F403C1853709F423
:107B200072C1863709F466C0809103018F5F80932C
:107B30000301853079F6E0910401F0910501099582
:107B40000E94763C803351F60E94F33CC3CF0E94E2
:107B5000763C803249F78091C00085FFFCCFF092DF
:107B6000C6008091C00085FFFCCF9092C600809136
:107B7000C00085FFFCCF8092C6008091C00085FFC9
:107B8000FCCF7092C6008091C00085FFFCCF609250
:107B9000C6008091C00085FFFCCF5092C600809146
:107BA000C00085FFFCCF4092C6008091C00085FFD9
:107BB000FCCF3092C6008091C00085FFFCCFB09210
:107BC000C60088CF0E94763C863808F4BDCF0E945C
:107BD000763C0E94F33C7ECF0E94763C803809F4CC
:107BE0009CC0813809F40BC1823809F43CC1883942
:107BF00009F48FC080E00E94C73C6CCF84E10E94F2
:107C0000BD3C0E94F33C66CF85E00E94BD3C0E94D3
:107C1000F33C60CF0E94763C809306010E94763C44
:107C2000809307010E94F33C55CF0E94763C80333D
:107C300009F41DC183E00E94BD3C80E00E94C73C66
:107C400049CF0E94763C809309020E94763C809343
:107C5000080280910C028E7F80930C020E94763C79
:107C6000853409F415C18091080290910902892B8D
:107C700089F000E010E00E94763CF801E85FFE4FDA
:107C800080830F5F1F4F80910802909109020817AF
:107C9000190788F30E94763C803209F045CF809125
:107CA0000C0280FF01C16091060170910701660F0F
:107CB000771F7093070160930601A0910802B091AD
:107CC00009021097C9F0E8E0F1E09B01AD014E0F09
:107CD0005F1FF999FECF32BD21BD819180BDFA9A17
:107CE000F99A2F5F3F4FE417F50799F76A0F7B1F4B
:107CF00070930701609306018091C00085FFFCCF5F
:107D0000F092C6008091C00085FFFCCFB092C60003
:107D1000E1CE83E00E94C73CDDCE82E00E94C73CFA
:107D2000D9CE0E94763C809309020E94763C8093D3
:107D300008028091060190910701880F991F909386
:107D40000701809306010E94763C853409F4A6C0A1
:107D500080910C028E7F80930C020E94763C8032D0
:107D600009F0B8CE8091C00085FFFCCFF092C6002C
:107D7000609108027091090261157105B9F140E046
:107D800050E080910C02A82FA170B82FB27011C0E2
:107D9000BB2309F45CC0E0910601F0910701319624
:107DA000F0930701E09306014F5F5F4F46175707B7
:107DB000E8F4AA2369F3F999FECF209106013091E6
:107DC000070132BD21BDF89A90B58091C00085FFB2
:107DD000FCCF9093C6002F5F3F4F30930701209355
:107DE00006014F5F5F4F4617570718F38091C00099
:107DF00085FDE5CE8091C00085FFF8CFE0CE81E023
:107E00000E94C73C67CE0E94763C803209F08CCE3F
:107E10008091C00085FFFCCFF092C6008091C00029
:107E200085FFFCCFE092C6008091C00085FFFCCFAB
:107E3000D092C6008091C00085FFFCCFC092C600E2
:107E40008091C00085FFFCCFB092C60043CEE09188
:107E50000601F091070194918091C00085FFFCCF4D
:107E60009093C6009CCF80E10E94C73C33CE0E9415
:107E7000763C0E94763C182F0E94763C112309F430
:107E800083C0113009F484C08FE00E94C73C22CE29
:107E900080910C02816080930C02E5CE80910C02EF
:107EA000816080930C0259CF809107018823880F4D
:107EB000880B8A2180930B02809106019091070123
:107EC000880F991F90930701809306018091080203
:107ED00080FF09C080910802909109020196909359
:107EE000090280930802F894F999FECF1127E091D6
:107EF0000601F0910701C8E0D1E08091080290915D
:107F00000902103091F40091570001700130D9F34B
:107F100003E000935700E89500915700017001308D
:107F2000D9F301E100935700E89509901990009169
:107F3000570001700130D9F301E000935700E89534
:107F40001395103498F011270091570001700130FB
:107F5000D9F305E000935700E895009157000170B0
:107F60000130D9F301E100935700E895329602976A
:107F700009F0C7CF103011F00296E5CF112480919F
:107F8000C00085FFB9CEBCCE8EE10E94C73CA2CD19
:0C7F900085E90E94C73C9ECDF894FFCF0D
:027F9C00800063
:040000030000780081
:00000001FF
